:020000002100DD
:1001000075A00075900020A31220A23420A15120D8
:10011000A06E30A0030201060201A0D290758006F5
:10012000512BC290D29175803F512BC291D29275C2
:10013000803F512BC292C29330A30280DE0201C0E5
:10014000D29075803F512BC290D291758007512B70
:10015000C291D29275806D512BC292D29302010648
:10016000D29075803F512BC290D29175806D512BEA
:10017000C291D29275803F512BC292D29302010656
:10018000D29075803F512BC290D29175805B512BDC
:10019000C291D29275806D512BC292D29302010608
:1001A000D29075803F512BC290D29175803F512BD8
:1001B000C291D29275803F512BC292D29302010616
:1001C00020A20E20A12920A04430A0030201C021BA
:1001D000A0D29075803F512BC290D291758007516B
:1001E0002BC291D29275806D512BC2920201C0D266
:1001F0009075803F512BC290D29175806D512BC26A
:1002000091D29275803F512BC2920201C0D290755B
:10021000803F512BC290D29175805B512BC291D2FD
:100220009275806D512BC2920201C0758901758A49
:0F0230000C758CFE758810308DFDC28CC28D222E
:00000001FF
